:020000040800F2
:10000000B00400209D010008670F00086F0E000873
:10001000650F0008D50200088911000800000000E3
:100020000000000000000000000000006B0F00084E
:10003000D702000800000000690F00086D0F0008DB
:10004000B7010008B7010008B7010008B7010008B0
:10005000B7010008B7010008B7010008B7010008A0
:10006000B7010008B7010008B7010008B701000890
:10007000B7010008B7010008B7010008B701000880
:10008000B7010008B7010008B7010008B701000870
:10009000B7010008B7010008B7010008B701000860
:1000A000B7010008B7010008B7010008B701000850
:1000B000B7010008B7010008B7010008B701000840
:1000C000B7010008B7010008B7010008B701000830
:1000D000B7010008B7010008B7010008B701000820
:1000E000B7010008B7010008B7010008B701000810
:1000F000B7010008B7010008B7010008B701000800
:10010000B7010008B7010008B7010008B7010008EF
:10011000B7010008B7010008B7010008B7010008DF
:10012000B7010008B7010008B7010008B7010008CF
:10013000B7010008B7010008B7010008B7010008BF
:10014000B7010008B7010008B7010008B7010008AF
:10015000B7010008B7010008B7010008B70100089F
:10016000B7010008B7010008B7010008B70100088F
:10017000B7010008B7010008B7010008000000003F
:10018000B7010008B7010008DFF80CD000F090F8C4
:100190000048004791130008B0040020064880473B
:1001A00006480047FEE7FEE7FEE7FEE7FEE7FEE75C
:1001B000FEE7FEE7FEE7FEE7E10F00088901000821
:1001C0002DE9F05F0546002092469B46884606468C
:1001D000814640241BE0284641464746224600F01F
:1001E00057F853465A46C01A914110D31146184643
:1001F000224600F03EF82D1A67EB01084F462246D2
:100200000120002100F035F817EB00094E41201EB7
:10021000A4F10104DFDC484631462A464346BDE8E6
:10022000F09FD2B201E000F8012B491EFBD27047CB
:100230000022F6E710B513460A4604461946FFF7B2
:10024000F0FF204610BD30B50B46014600202022AD
:10025000012409E021FA02F59D4205D303FA02F5D3
:10026000491B04FA02F52844151EA2F10102F1DC33
:1002700030BD202A04DB203A00FA02F1002070474A
:100280009140C2F1200320FA03F3194390407047D4
:10029000202A04DB203A21FA02F00021704721FADB
:1002A00002F3D040C2F12002914008431946704742
:1002B000064C074D06E0E06840F0010394E80700B3
:1002C00098471034AC42F6D3FFF762FF18140008C9
:1002D00038140008FEE7704770B5B3F5804F05D0BD
:1002E0006FF0704140F82210002070BD50F822409D
:1002F000084B8E891C40D1E9003543EA05138D680F
:1003000089692D0245EA06452B430B43234340F8F8
:100310002230E9E70000F0CFF0B50C6850F8243047
:10032000114A1340D1E90125D1E903672A433E432D
:1003300032434E6932438E693243CE6932430E6A8C
:1003400032434E6A32438E6A3243CE6A3243CE6BB8
:10035000096B32430A431A43082D01D142F040028F
:1003600040F824200020F0BD8000F0FF30B500EB05
:10037000820250688D8900F04043D1E9000440EAD0
:1003800004108C68240244EA054420430C8A074D7B
:1003900005EB045420430C7D6D0105EB0464896971
:1003A0002043084318435060002030BD0000F0FF98
:1003B00070B5044600F02AF90546601C02D00448D6
:1003C0000078044400F022F9401BA042FAD370BD2B
:1003D00008000020F0B587B014216846FFF728FF19
:1003E00015480168002924D1012101601348002427
:1003F000016841F0010101600068022500F0010080
:1004000005904FF68070CDE9000502AA03260C275F
:1004100082E8D00069460A4800F016F84EF2B37040
:10042000CDE9000502AA694682E8D000054800F03F
:100430000BF807B0F0BD0000000000203838024083
:1004400000100240000C02402DE9F84F00224FF04E
:10045000010803254FF00F0E0B6808FA02F4234041
:10046000A3426ED14E68012E05D0022E03D0112E6C
:1004700001D0122E12D186684FEA420C05FA0CF711
:10048000BE43CF6807FA0CF7374387604668A64338
:100490000C79C4F30014944034434460C668570098
:1004A00005FA07FC8C6826EA0C06BC403443C4609D
:1004B0004C68022C01D0122C13D1D40800EB840418
:1004C000A346D4F8209054074FEAD46A0EFA0AF6ED
:1004D00029EA06090E6906FA0AF646EA0906CBF881
:1004E000206006680C7926EA0C0604F00304BC4080
:1004F000344304604C68E40065D5364C266846F405
:1005000080462660246822F0030604F480440094A8
:10051000314C3444A446D4F808489607370F0EFAF5
:1005200007F6B4432D4EB04201D1002624E02C4EF4
:10053000B04201D101261FE02A4EB04202D102266C
:100540001AE040E0284EB04201D1032614E0274EC5
:10055000B04201D104260FE0254EB04201D105265C
:100560000AE0244EB04201D1062605E0224EB042F8
:1005700001D1072600E00826BE402643CCF80868D3
:100580001E4E34684F689C43FF0300D51C43346003
:100590001A4C241D26684F689E43BF0300D51E4396
:1005A0002660164E083634684F689C43FF0200D51B
:1005B0001C433460114E0C3634684F689C43BF02B4
:1005C00000D51C433460521C102AFFF445AFBDE82F
:1005D000F88F000044380240003001400000024023
:1005E0000004024000080240000C024000100240DB
:1005F0000014024000180240001C0240003C014070
:100600000AB1816170470904FBE700000148806876
:1006100070470000080000200248816802781144F9
:1006200081607047080000200B4810B5016841F454
:1006300000710160016841F480610160016841F46A
:1006400080710160032000F061F8002000F006F8DE
:1006500000F024F8002010BD003C024070B50D4DA4
:1006600004464FF47A712878B1FBF0F00A49096822
:10067000B1FBF0F000F023FB48B9102C07D20022A8
:100680002146501E00F022F800206C6070BD012051
:1006900070BD000008000020140000200A4808B5C2
:1006A000016841F480410160006800F480400090DE
:1006B0000548001F016841F080510160006800F0AA
:1006C0008050009008BD000044380240F0B40E4B4A
:1006D0001B680C46C3F30223C3F10705042D00D9A0
:1006E0000425191D072901D2002300E0DB1E012685
:1006F00006FA05F1491E214099409E40761E16409B
:100700003143F0BC00F052BD0CED00E0064900F0B2
:10071000070208684FF6FF03184040EA0220034A28
:1007200010430860704700000CED00E00000FA057F
:100730002DE9F0470E46050065D0DFF81481D8F8A2
:100740000000F7B200F00F00B04207D288F8007046
:10075000D8F8000000F00F00B04254D128683D4C9A
:10076000810712D5400703D5206840F4E05020608F
:100770002878000703D5206840F460402060206896
:10078000A96820F0F000084320602878C0072DD029
:10079000304968680839012812D0022813D003288C
:1007A00011D00968890700292DDA216821F0030199
:1007B00001432160FFF72AFF814641F2883A0EE0AB
:1007C00009688903EFE709688901ECE7FFF71EFF75
:1007D000A0EB0901514502D90320BDE8F08720684C
:1007E000696800F00C00B0EB810FEFD1D8F8001071
:1007F000404601F00F01B14207D90770006800F0D0
:100800000F00B04201D00120E7E72878400705D566
:100810002068E96820F4E050084320602878000749
:1008200006D52068296920F4604040EAC1002060B4
:1008300000F038F82168084AC1F30311515CC84040
:100840000649086006480068FFF708FF0020C4E773
:10085000003C024008380240001400081400002048
:100860000C0000200448054900680968044AC1F3E7
:100870008221515CC84070471400002008380240B3
:10088000101400080448054900680968044AC1F3C7
:100890004231515CC84070471400002008380240C3
:1008A00010140008154810B5006810F00C02144828
:1008B00013D01449042A0FD0082A0ED10F4C241F3C
:1008C0002268236802F03F025B0207D52068C0F36C
:1008D0008810A0FB010106E0084610BD2168C1F3A5
:1008E0008811A1FB00010023FFF76AFC2168C1F316
:1008F0000141491C4900B0FBF1F010BD083802402D
:100900000024F40040787D012DE9F84F04006ED0FA
:100910002078DFF83C93C007A9F104054AD009F11B
:1009200004000168C1F38101012908D00068C0F307
:10093000810002280AD1D9F80000400206D52868B3
:10094000800337D560680028E1D033E06068B0F5F7
:10095000803F10D0B0F5A02F286810D020F4803050
:100960002860286820F4802028606068A8B1FFF71C
:100970004DFE06460DE0286840F48030F4E740F470
:1009800080202860F7E700BFFFF740FE801B642847
:1009900073D828688003F7D50CE0FFF737FE0646CA
:1009A00005E000BFFFF732FE801B6428F0D82868FE
:1009B0008003F7D42078DFF89C8280074FF0000A8C
:1009C0003ED5A348001D016811F00C0F08D0006847
:1009D000C0F3810002280BD1D9F80000400207D4EF
:1009E0002868800716D5E068012800D112E02BE1C5
:1009F000E068B8B10120C8F80000FFF707FE06461E
:100A000005E000BFFFF702FE801B0228C0D828685F
:100A10008007F7D52868216920F0F80040EAC10076
:100A200028600DE0C8F800A0FFF7F0FD064604E0DE
:100A3000FFF7ECFD801B02281FD828688007F7D439
:100A40002078000722D5824E83486169703671B1E3
:100A500001210160FFF7DAFD074604E0FFF7D6FD4C
:100A6000C01B022809D830688007F7D50EE0C0F80F
:100A700000A0FFF7CBFD074605E082E0FFF7C6FDCB
:100A8000C01B02287DD830688007F7D42078400743
:100A900068D5DFF8BCB100270BF13C0BDBF8000098
:100AA000C0000BD4DBF8001041F08051CBF80010EF
:100AB000DBF80000012700F080500090674E30689E
:100AC000C00510D4306840F480703060FFF79EFDA0
:100AD000009005E0FFF79AFD0099401A022850D8CF
:100AE0003068C005F6D55A4EA0686C3601280FD084
:100AF0000528306810D020F001003060306820F008
:100B000004003060A068B8B1FFF780FD00900FE0EE
:100B1000306840F00100F4E740F004003060F7E78F
:100B2000FFF774FD0099411A41F28830814266D87E
:100B300030688007F4D50EE0FFF768FD009007E00D
:100B4000FFF764FD0099411A41F28830814256D87E
:100B500030688007F4D42FB1DBF8001021F0805109
:100B6000CBF80010A069C8B33949091D0968C1F361
:100B7000810102294AD00228504607D0C8F86000F7
:100B800000E03CE0FFF742FD04463BE04746C8F882
:100B90006000FFF73BFD064605E000BFFFF736FDAE
:100BA000801B02282BD828688001F7D4D4E90701DC
:100BB0000843A16A2A4A490802EB0141626A41EAF4
:100BC0008211084394F82C1040EA0161C9F8001022
:100BD00001203866FFF71AFD044606E036E000BF44
:100BE000FFF714FD001B022809D828688001F7D5FB
:100BF0002CE000BFFFF70AFD001B022802D90320EA
:100C0000BDE8F88F28688001F4D41FE00128F7D0F0
:100C1000D9F80000E26900F48001914214D1226AFF
:100C200000F03F0191420FD147F6C071626A014066
:100C3000914209D1A26A00F44031914204D1E16AA3
:100C400000F07060884201D00120D9E70020D7E78A
:100C50000438024000004742800E474200700040C6
:100C60000000FFFF70B515460E46040003D094F84F
:100C7000490010B107E0012070BD002084F8480051
:100C8000204600F01AF804F108012068FFF744FB41
:100C90003146A2682068FFF769FBD4E901022946C2
:100CA000236BFFF719FBA168206850F8212042F060
:100CB000010240F82120002070BDFFF78BBB10B56A
:100CC000401EB0F1807F01D3012010BD4FF0E02421
:100CD00060610F21601700F069FA0020A061072011
:100CE0002061002010BD70B5040004D094F83900D4
:100CF000002510B106E0012070BD84F83850204670
:100D000000F022F8242084F839002068C16821F41A
:100D10000051C160204600F071F92068016921F49A
:100D2000904101612068416921F02A0141612068F8
:100D3000C16841F40051C160E563202084F83900A6
:100D400084F83A00002070BD10B586B00446142126
:100D50006846FFF76DFA14492068884221D113488C
:100D60000021026842F010020260006800F01000EA
:100D700005900E481438026842F0010202600068D3
:100D800000F0010005904FF4C06000900220CDE912
:100D90000101032003900720049069460448FFF7EF
:100DA00053FB06B010BD0000001001404438024063
:100DB000000002402DE9F843044690F839001F4630
:100DC00016460D46202850D1B5B1AEB194F8380082
:100DD00001284AD0012084F838004FF00008C4F8F8
:100DE0003C80212084F83900FFF710FCA68481465E
:100DF000E68484F8388026E00120BDE8F883E08CA2
:100E0000401EE084A0684B46B0F5805F4FF00002C2
:100E10004FF080012046009703D000F083F9E8B935
:100E20000DE000F07FF9C8B928882168C0F30800F8
:100E30004860206908B16D1C05E0AD1C03E0216825
:100E400015F8010B4860E08C0028D8D14B460022F1
:100E500040212046009700F065F908B10320CCE757
:100E6000202084F839000020C7E70220C5E7FEE70C
:100E700000B587B01C216846FFF7DAF913484FF038
:100E80002041102201601249416000218160C1604F
:100E9000C0E904128161C16113020162C0E9091352
:100EA000C16201634163816341640F20FF230090AD
:100EB000CDE90103CDE903021120CDE905010022AE
:100EC00069460248FFF7CEFE07B000BD5C00002077
:100ED000040100A0F0B587B014216846FFF7A8F917
:100EE0001D480024016841F010010160016801F013
:100EF00010010591016841F001010160016801F0F4
:100F000001010591016841F0080101600068134E7C
:100F100000F00800059000221C213046FFF770FB0E
:100F20000F4F002280213846FFF76AFB1C200090FB
:100F30000125CDE90154694630460394FFF784FA50
:100F400080200090CDE90154694638460394FFF7AC
:100F50007BFA07B0F0BD00003038024000100240BC
:100F600000000240FEE7704770477047FFF754BB30
:100F700010B592B030216846FFF75AF914210CA839
:100F8000FFF756F914480024016841F080510160D0
:100F9000006800F0805011901048016841F48041D1
:100FA00001600068069400F48040119002200090D7
:100FB00001200390102004906846FFF7A5FC0F2045
:100FC000CDE90C040E940F9400210CA81094FFF7A7
:100FD000AFFB12B010BD000040380240007000406E
:100FE0000548016841F47001016003494FF0006059
:100FF000803908607047000088ED00E02DE9F0417D
:10100000044600680169E26821F44051114301611E
:101010002169A068E26908436169114308432168B6
:10102000CA6849F20C639A430243CA602068416966
:10103000A26921F4407111434161E06919276425D7
:101040003226B0F5004F354A354920684FF0000888
:1010500006D0884201D0904236D1FFF713FC35E02C
:10106000884201D0904202D1FFF70CFC01E0FFF76B
:10107000F9FB61684A18A0FB070148EB0803FFF77A
:101080009FF80146B0FBF5F00201B1FBF5F06FF0FF
:101090001803584301EB800006EBC000B0FBF5F0ED
:1010A00000F0F80002EB4002B1FBF5F0584301EB11
:1010B000800006EBC000B0FBF5F000F007002168EF
:1010C00010448860BDE8F081FFF7CCFB61688B0FAE
:1010D0008A00A0FB0701FFF773F80146B0FBF5F0AB
:1010E0006FF01802504301EB800006EB0010B0FBDC
:1010F000F5F000F0F002B1FBF5F002EB0012B1FBED
:10110000F5F06FF01803584301EB800006EB001078
:10111000B0FBF5F000F00F00D1E700000014014033
:10112000001001402DE9F041984617460E4604464E
:10113000069D1DE0681C1BD02DB1FFF767FAA0EBE0
:101140000800A84214D92068C16821F4D071C16098
:101150002068416921F001014161202084F83900B3
:1011600084F83A00002084F838000320BDE8F081BC
:101170002068006836EA000004D00020B842D9D0C8
:101180000020F3E70120F9E7FEE700000FB4054B6C
:1011900010B503A9044A029800F028F810BC5DF8C5
:1011A00014FB000041130008180000200907090E75
:1011B000002804DB00F1E02080F80014704700F004
:1011C0000F0000F1E02080F8141D704702E008C80D
:1011D000121F08C1002AFAD170477047002001E0B1
:1011E00001C1121F002AFBD1704700002DE9FF4FFB
:1011F00089B09B460446002506E025280BD05A46B8
:101200000B999047641C6D1C20780028F5D10DB017
:101210002846BDE8F08F0027B8460122474900E084
:10122000074314F8013F203B02FA03F00842F7D1CC
:1012300020782E2819D114F8010F47F004072A2826
:101240000ED06FF02F022078A0F1300109290CD8C0
:1012500008EB880102EB410100EB0108641CF2E796
:101260000A98641C50F8048B0A9020780028CED08D
:10127000642808D0692806D075281ED05A460B99D4
:1012800090476D1C58E00A994FF00A0901C90A916C
:10129000002802DA40422D2102E0390504D52B2135
:1012A0008DF82010012103E0F90704D02021F7E791
:1012B0008A4608AE0DE00021FAE70A994FF00A09C4
:1012C00001C90A91F7E74946FEF7BDFF303106F83C
:1012D000011D0028F7D1ADEB060000F120097807C9
:1012E00001D44FF00108C84502DDA8EB090000E079
:1012F00000208046002706E008A85A46C05D0B99EA
:1013000090476D1C7F1C5745F6DB04E030205A46A1
:101310000B9990476D1CB8F10001A8F10108F5DCAC
:1013200005E016F8010B5A460B9990476D1CB9F170
:101330000001A9F10109F4DC641C65E7092801003A
:1013400013B54FF6FF73012269460248FFF732FDDD
:1013500000981CBD1C00002010B50849042008801E
:101360004FF0C040018806A00A460B46FFF70EFF6B
:10137000BDE810400A20FFF71BB80000000008601D
:1013800049443A25642C25642C2564200D0A00006C
:10139000FFF74AF9FFF7ECFDFFF79CFDFFF768FD4B
:1013A000154814490C2201604FF4E13141600021DD
:1013B0008160C160C0E904128161C161FFF793FCE3
:1013C0006420FEF7F5FF0D4C012204212046FFF7B3
:1013D00017F9002208212046FFF712F900221021F8
:1013E0002046FFF70DF90A20FEF7E2FFFFF7B4FFF2
:1013F000F9E70000001001401C000020001002402E
:1014000000000000000000000102030406070809B4
:10141000000000000102030438140008000000204E
:101420001C000000CC110008541400081C0000200F
:1014300094040000DC11000800000000000000001F
:101440000100000010000000000000000024F40073
:041450000000000098
:040000050800018965
:00000001FF
